S012000043616C63756C61746F722E7372656308
S11300000C942A000C9447000C9447000C9447006D
S11300100C9447000C9447000C9447000C94470040
S11300200C9447000C9447000C9447000C94470030
S11300300C9447000C9447000C9447000C94470020
S11300400C9447000C9447000C9447000C94470010
S11300500C94470011241FBECFE5D8E0DEBFCDBF0E
S113006010E0A0E6B0E0E6EDF8E002C005900D92E5
S1130070A037B107D9F720E0A0E7B0E001C01D9296
S1130080A137B207E1F70E9491010C9469040C9422
S11300900000823419F118F4813439F0089583345E
S11300A0B1F1843409F44CC00895413059F42AB3B1
S11300B081E090E002C0880F991F6A95E2F7822BD5
S11300C08ABB08952AB381E090E002C0880F991F8B
S11300D06A95E2F7809582238ABB0895413059F4EA
S11300E027B381E090E002C0880F991F6A95E2F778
S11300F0822B87BB089527B381E090E002C0880F6C
S1130100991F6A95E2F78095822387BB0895413051
S113011059F424B381E090E002C0880F991F6A95D6
S1130120E2F7822B84BB089524B381E090E002C0FF
S1130130880F991F6A95E2F78095822384BB0895FE
S1130140413059F421B381E090E002C0880F991F37
S11301506A95E2F7822B81BB089521B381E090E098
S113016002C0880F991F6A95E2F78095822381BBAC
S11301700895823419F118F4813439F008958334E0
S1130180B1F1843409F44CC00895413059F42BB3CF
S113019081E090E002C0880F991F6A95E2F7822BF4
S11301A08BBB08952BB381E090E002C0880F991FA8
S11301B06A95E2F7809582238BBB0895413059F408
S11301C028B381E090E002C0880F991F6A95E2F796
S11301D0822B88BB089528B381E090E002C0880F89
S11301E0991F6A95E2F78095822388BB0895413070
S11301F059F425B381E090E002C0880F991F6A95F5
S1130200E2F7822B85BB089525B381E090E002C01C
S1130210880F991F6A95E2F78095822385BB08951C
S1130220413059F422B381E090E002C0880F991F55
S11302306A95E2F7822B82BB089522B381E090E0B5
S113024002C0880F991F6A95E2F78095822382BBCA
S113025008958234D9F018F4813431F04DC08334D8
S113026039F18434B9F148C029B381E090E0062E15
S113027002C0880F991F0A94E2F730E08223932387
S113028002C0959587956A95E2F7089526B381E0B3
S113029090E0062E02C0880F991F0A94E2F730E01E
S11302A08223932302C0959587956A95E2F7089572
S11302B023B381E090E0062E02C0880F991F0A94B0
S11302C0E2F730E08223932302C0959587956A95DF
S11302D0E2F7089520B381E090E0062E02C0880F73
S11302E0991F0A94E2F730E08223932302C0959584
S11302F087956A95E2F7089580E00895823459F06D
S113030018F4813431F00895833439F0843439F0A9
S113031008956BBB089568BB089565BB089562BBDF
S113032008952F923F924F925F926F927F928F9295
S11303309F92AF92BF92CF92DF92EF92FF920F9370
S11303401F93CF93DF93FF24F394EE24EA940F2EAC
S1130350F4E7CF2EF02D712C0F2EFAE0DF2EF02DC6
S11303601DECDF2D2D2C612C512C412C312C0E94A5
S1130370BA0383E40E94E7028F2D0E94A5038FE154
S11303809EE40197F1F700C00000E0927000BC2CDD
S1130390072DCD2DA72C972C83E40E942603809350
S11303A070008F3FC9F30E940D0480917000982F54
S11303B09D7F9D32B1F096ED980F9230B0F001110F
S11303C005C080538C9F900C112404C080538C9FD3
S11303D0A00C1124C19FC12D1124C695C695C695A4
S11303E007C0B82E0D2FC22D03C0B82E0D2FC22D5D
S11303F09FEF22E587E0915020408040E1F700C064
S11304000000809170008D3339F69BE2B91209C067
S11304106A2D70E0690D711D072E000C880B990B75
S113042022C02DE2B21209C0692D70E06A19710967
S1130430072E000C880B990B16C08AE2B81208C06C
S11304409A9CB0011124072E000C880B990B0BC049
S11304509FE2B9129FC0892D6A2D0E941C04682F47
S113046070E080E090E06A307105810591054CF4FC
S11304700130F1F401C0662D80E3860F0E940D0463
S113048071C0643671058105910594F40130B9F5A4
S11304902AE030E040E050E00E942804C62F80E3C8
S11304A0820F0E940D0480E38C0F0E940D045AC039
S11304B0683E23E07207810591050CF5013009F0CF
S11304C051C024E630E040E050E00E9428044B0193
S11304D05C0180E3820F0E940D04C501B4012AE08F
S11304E030E040E050E00E942804C62F80E3820FF1
S11304F00E940D0480E38C0F0E940D0433C0603110
S113050027E27207810591056CF5013059F528EE53
S113051033E040E050E00E9428044B015C0180E39A
S1130520820F0E940D04C501B40124E630E040E0CE
S113053050E00E9428044B015C0180E3820F0E947A
S11305400D04C501B4012AE030E040E050E00E940F
S11305502804C62F80E3820F0E940D0480E38C0FD1
S11305600E940D04E092700083E40E9426038093AD
S113057070008F3FC9F38F36A9F48F2D0E94A50315
S11305808FEF92E527E0815090402040E1F700C0D2
S11305900000EDCE013009F46ECF662D752D842D4B
S11305A0932D8CCF80E090E0DF91CF911F910F913C
S11305B0FF90EF90DF90CF90BF90AF909F908F907F
S11305C07F906F905F904F903F902F900895CF93BE
S11305D0C82F41E060E00E94490041E061E08C2FB7
S11305E00E94490041E062E08C2F0E94490041E0F2
S11305F063E08C2F0E94490040E064E08C2F0E944D
S1130600490040E065E08C2F0E94490040E066E02C
S11306108C2F0E94490040E067E08C2F0E94490023
S113062041E064E08C2F0E94B90041E065E08C2F2A
S11306300E94B90041E066E08C2F0E94B90041E0BD
S113064067E08C2F0E94B900CF910895DF92EF925A
S1130650FF920F931F93CF93DF93CDB7DEB76097CD
S11306600FB6F894DEBF0FBECDBF082F80E1E0E6E1
S1130670F0E0DE01119601900D928A95E1F7E12CEC
S1130680F12CDD24DA9441E060E0802F0E94B9006F
S113069041E061E0802F0E94B90041E062E0802FD8
S11306A00E94B90041E063E0802F0E94B90040E05D
S11306B06E2D802F0E94B90010E064E0610F802F3E
S11306C00E94290181110FC0F701EE0FFF1FEE0FE9
S11306D0FF1FE10FF11D81E090E08C0F9D1FE80FDB
S11306E0F91FD08005C0DD2019F01F5F143029F7F1
S11306F09FEFE91AF90A84E0E816F10421F68D2D3A
S113070060960FB6F894DEBF0FBECDBFDF91CF91D8
S11307101F910F91FF90EF90DF90089541E060E00A
S113072082E40E94B9008FE99FE00197F1F700C0CD
S1130730000040E060E082E40E94B9008FE99FE09D
S11307400197F1F700C000000895CF93C82F40E04F
S113075062E082E40E94B9006C2F81E40E947E0171
S11307600E948E038FEC97E00197F1F700C0000020
S1130770CF9108952FEF81EE94E021508040904076
S1130780E1F700C0000041E060E081E40E9449001C
S113079041E061E081E40E94490041E062E081E4DB
S11307A00E94490041E063E081E40E94490041E085
S11307B064E081E40E94490041E065E081E40E9434
S11307C0490041E066E081E40E94490041E067E0BD
S11307D081E40E94490041E061E082E40E94490012
S11307E041E062E082E40E94490041E060E082E48A
S11307F00E94490088E30E94A5038CE00E94A5039F
S113080086E00E94A50381E00E94A5038FE19EE497
S11308100197F1F700C000000895CF93C82F41E07D
S113082062E082E40E94B9006C2F81E40E947E01A0
S11308300E948E03CF910895991B79E004C0991FFB
S1130840961708F0961B881F7A95C9F78095089526
S1130850052E97FB1EF400940E943F0457FD07D019
S11308600E94470407FC03D04EF40C943F045095B7
S11308704095309521953F4F4F4F5F4F0895909588
S11308808095709561957F4F8F4F9F4F0895A1E29A
S11308901A2EAA1BBB1BFD010DC0AA1FBB1FEE1FF6
S11308A0FF1FA217B307E407F50720F0A21BB30B41
S11308B0E40BF50B661F771F881F991F1A9469F7BD
S11308C060957095809590959B01AC01BD01CF0119
S10908D00895F894FFCF27
S11308D63738392F3435362A3132332D6F303D2BA4
S9030000FC
