:100000000C942A000C9447000C9447000C94470071
:100010000C9447000C9447000C9447000C94470044
:100020000C9447000C9447000C9447000C94470034
:100030000C9447000C9447000C9447000C94470024
:100040000C9447000C9447000C9447000C94470014
:100050000C94470011241FBECFE5D8E0DEBFCDBF12
:1000600010E0A0E6B0E0E2E7F6E002C005900D92F5
:10007000A836B107D9F710E0A8E6B0E001C01D929C
:10008000AE36B107E1F70E9449000C9437030C9497
:1000900000008BE090E0A0E0B0E0809363009093DC
:1000A0006400A0936500B093660000D000D000D03B
:1000B00020E630E0EDB7FEB732832183838394835B
:1000C000A583B6830E946D008DB79EB706960FB6C6
:1000D000F8949EBF0FBE8DBFFFCFA0E0B0E0E3E776
:1000E000F0E00C941003FE013596619171918091BE
:1000F0006A0090916B00AF010E9482002096E2E0BE
:100100000C942C03ADE0B0E0E8E8F0E00C940003C0
:100110003C017D876C875A01FC011782168283811E
:1001200081FFC8C12E010894411C511CF301938129
:10013000EC85FD8593FD859193FF8191FD87EC878B
:10014000882309F4B3C1853241F493FD859193FF6F
:100150008191FD87EC87853229F490E0B3010E94FC
:100160007602E4CFFF24EE2410E01032B0F48B329C
:1001700069F08C3228F4803251F0833271F40BC074
:100180008D3239F0803349F411602CC01260146054
:1001900029C0186027C0106125C017FD2EC0282F68
:1001A00020532A3098F416FF08C08F2D880FF82EA0
:1001B000FF0CFF0CF80EF20E15C08E2D880FE82EE6
:1001C000EE0CEE0CE80EE20E10620CC08E3221F442
:1001D00016FD6CC1106406C08C3611F4106802C0A4
:1001E000883659F4EC85FD8593FD859193FF8191C7
:1001F000FD87EC87882309F0B8CF982F955493306A
:1002000018F09052933038F424E030E0A20EB31E80
:100210003FE339830FC0833631F0833781F0833574
:1002200009F05AC022C0F5018081898322E030E0C4
:10023000A20EB31E21E0C22ED12C420114C092E0C6
:10024000292E312C2A0C3B1CF5018080918016FF51
:1002500003C06F2D70E002C06FEF7FEFC4010E94FA
:100260006B026C0151011F7715C082E0282E312CE2
:100270002A0C3B1CF5018080918016FF03C06F2D76
:1002800070E002C06FEF7FEFC4010E9460026C015A
:100290001068510113FD1CC006C080E290E0B3015C
:1002A0000E947602EA948E2D90E0C816D906A8F333
:1002B0000FC0F40117FD859117FF81914F0190E068
:1002C000B3010E947602E110EA940894C108D108B3
:1002D000C114D10471F7E7C0843611F0893651F5A5
:1002E000F50117FF07C080819181A281B38124E0CD
:1002F00030E008C080819181AA2797FDA095BA2F90
:1003000022E030E0A20EB31E012F0F76B7FF08C027
:10031000B095A095909581959F4FAF4FBF4F0068C6
:10032000BC01CD01A2012AE030E00E94A202D82E39
:10033000D4183FC0853721F41F7E2AE030E020C06A
:10034000197F8F36A9F0803720F4883509F0AEC0C8
:100350000BC0803721F0883709F0A8C001C01061B8
:1003600014FF09C0146007C014FF08C0166006C05F
:1003700028E030E005C020E130E002C020E132E0BA
:10038000F50117FF07C0608171818281938144E08C
:1003900050E006C06081718180E090E042E050E072
:1003A000A40EB51EA2010E94A202D82ED418012FBD
:1003B0000F7706FF09C00E7FDF1430F404FF06C07C
:1003C00002FD04C00F7E02C01D2D01C01F2D802F15
:1003D00090E004FF0CC0FE01ED0DF11D20812033E3
:1003E00011F4097E09C002FF06C01E5F05C08678B1
:1003F0009070009709F01F5F802E992403FD12C0B2
:1004000000FF0DC0FD2C1E1550F4FE0CF11A1E2D20
:1004100006C080E290E0B3010E9476021F5F1E15C5
:10042000C0F304C01E1510F4E11A01C0EE2484FECE
:100430000FC080E390E0B3010E94760282FE1FC0ED
:1004400081FE03C088E590E010C088E790E00DC011
:10045000C40186789070009791F081FC02C080E220
:1004600001C08BE207FD8DE290E0B3010E947602AD
:1004700006C080E390E0B3010E947602FA94DF1494
:10048000C0F3DA94F201ED0DF11D808190E0B3012B
:100490000E947602DD20A9F706C080E290E0B30159
:1004A0000E947602EA94EE20C1F740CEF3018681E5
:1004B000978102C08FEF9FEF2D96E2E10C941C0311
:1004C000FC010590615070400110D8F7809590951F
:1004D0008E0F9F1F0895FC01615070400190011024
:1004E000D8F7809590958E0F9F1F08950F931F93B7
:1004F000CF93DF938C01EB018B8181FF1BC082FFC7
:100500000DC02E813F818C819D812817390764F4AD
:10051000E881F9810193F983E88306C0E885F985CC
:10052000802F0995009731F48E819F8101969F83DA
:100530008E8302C00FEF1FEFC801DF91CF911F9193
:100540000F910895FA01AA27283051F1203181F145
:10055000E8946F936E7F6E5F7F4F8F4F9F4FAF4FCB
:10056000B1E03ED0B4E03CD0670F781F891F9A1FDE
:10057000A11D680F791F8A1F911DA11D6A0F711D92
:10058000811D911DA11D20D009F468943F912AE09E
:10059000269F11243019305D3193DEF6CF01089586
:1005A000462F4770405D4193B3E00FD0C9F7F6CFB7
:1005B000462F4F70405D4A3318F0495D31FD40527F
:1005C000419302D0A9F7EACFB4E0A6959795879515
:1005D00077956795BA95C9F70097610571050895F4
:1005E0009B01AC010A2E06945795479537952795A0
:1005F000BA95C9F7620F731F841F951FA01D089538
:100600002F923F924F925F926F927F928F929F9222
:10061000AF92BF92CF92DF92EF92FF920F931F9310
:10062000CF93DF93CDB7DEB7CA1BDB0B0FB6F894C1
:10063000DEBF0FBECDBF09942A88398848885F8401
:100640006E847D848C849B84AA84B984C884DF8072
:10065000EE80FD800C811B81AA81B981CE0FD11D56
:100660000FB6F894DEBF0FBECDBFED010895F8942C
:02067000FFCFBA
:08067200256C000100000000EE
:00000001FF
